:060000000C9438000C9482
:1000060000000C9400000C9400000C9400000C946A
:1000160000000C9400000C9400000C9400000C945A
:1000260000000C9400000C9400000C9400000C944A
:1000360064000C9400000C9400000C9400000C94D6
:1000460000000C9400000C9400000C940000102793
:10005600E80364000A00010000100001100001001E
:1000660000000100040066000000F894EE27ECBBD7
:10007600F1E0F5BFE5BF8DE0A2E0BB27ED938A95E1
:10008600E9F780E098E0A0E6ED930197E9F7E8E666
:10009600F0E085919591009761F0A591B591059055
:1000A6001590BF01F00105900D920197E1F7FB0154
:1000B600F0CFEFE5EDBFE8E0EEBFC0E6D2E00C948E
:1000C6007700AA93BA93EA93EFB7EA93A42DB0E028
:1000D600A05ABD4FECB1EC935E2E4394E991EFBF6D
:1000E600E991B991A9911895EFEFEABBE7BBE4BB9B
:1000F600E1BBE0E0EBB9E8E9EAB9E6E8E0BDE0E05B
:10010600E0BDE3E3E9B9E0E0E6B9E0E5EDB9E0E05A
:10011600EEB97894DE9AA8ECB0E00E949900DE98D9
:10012600A8ECB0E00E949900F5CFFFCF109639F009
:1001360080ED97E00197F1F7A8951197C9F7089513
:00000001FF
