:0A0000000C9489000C9400000C948D
:10000A0000000C9400000C9400000C9400000C9466
:10001A0000000C9400000C9400000C9400000C9456
:10002A0000000C9400000C9400000C94B6000C9490
:10003A0000000C9400000C9400000C9400000C9436
:10004A0000000C9400000C9400001027E8036400E0
:10005A000A000100001000011000010000005049D0
:10006A004E412E303D300050494E412E303D310038
:10007A0050494E412E313D300050494E412E313DBE
:10008A00310050494E412E323D300050494E412EEA
:10009A00323D310050494E412E333D300050494ED9
:1000AA00412E333D310050494E412E343D300050EF
:1000BA00494E412E343D310050494E412E353D3096
:1000CA000050494E412E353D310050494E412E36A1
:1000DA003D300050494E412E363D310050494E4187
:1000EA002E373D300050494E412E373D31005049A0
:1000FA004E422E313D300050494E422E313D3100A4
:10010A000200020066000000F894EE27ECBBF1E062
:10011A00FBBFEBBFE5BF8DE0A2E0BB27ED938A955D
:10012A00E9F780E098E0A0E6ED930197E9F7EAE0C5
:10013A00F1E085919591009761F0A591B5910590AF
:10014A001590BF01F00105900D920197E1F7FB01AF
:10015A00F0CFEFE5EDBFE8E0EEBFC0E6D2E00C94E9
:10016A00B7001895E0E0EABBB89AB998EFBDEEBDC2
:10017A00EDBDECBDE7BDE6BDEBBDEABDE9BDE8BD41
:10018A00E2BDE5BDE4BDE3BDE9BFE5BFE4BFEBB950
:10019A00E8E9EAB9E6E8E0BDE0E0E0BDE3E3E9B9B1
:1001AA00E0E8E8B9E0E0E0BFE6B9E0E4EDB9E0E0B4
:1001BA00EEB9E6BF7894A0E0C899A1E0E1E00E9418
:1001CA0020020E2EA0E0C999A1E00E940702A0E039
:1001DA00CA99A1E00E940702A0E0CB99A1E00E947F
:1001EA000702A0E0CC99A1E00E940702A0E0CD9905
:1001FA00A1E00E940702A0E0CE99A1E00E940702B6
:10020A00A0E0CF99A1E0E1E00E942002E02959F0A4
:10021A00C09AA0E9B1E00E941102C098A0E9B1E039
:10022A000E941102C8CFC09AC89902C020FE01C01C
:10023A0006C0689420F8A8E6B0E00E940C02C89BA9
:10024A0002C020FC01C006C0E89420F8A1E7B0E093
:10025A000E940C02C99902C021FE01C006C068941E
:10026A0021F8AAE7B0E00E940C02C99B02C021FC57
:10027A0001C006C0E89421F8A3E8B0E00E940C028D
:10028A00CA9902C022FE01C006C0689422F8ACE8EE
:10029A00B0E00E940C02CA9B02C022FC01C006C048
:1002AA00E89422F8A5E9B0E00E940C02CB9902C0BA
:1002BA0023FE01C006C0689423F8AEE9B0E00E94AC
:1002CA000C02A0E0CB99A1E0E1E00E941B020E2EF5
:1002DA00A0E023FCA1E0E1E00E941B02E02131F052
:1002EA00E89423F8A7EAB0E00E940C02CC9902C075
:1002FA0024FE01C006C0689424F8A0EBB0E00E9476
:10030A000C02CC9B02C024FC01C006C0E89424F86D
:10031A00A9EBB0E00E940C02CD9902C025FE01C0F3
:10032A0006C0689425F8A2ECB0E00E940C02CD9BAE
:10033A0002C025FC01C006C0E89425F8ABECB0E089
:10034A000E940C02CE9902C026FE01C006C0689423
:10035A0026F8A4EDB0E00E940C02CE9B02C026FC57
:10036A0001C006C0E89426F8ADEDB0E00E940C0288
:10037A00CF9902C027FE01C006C0689427F8A6EEEE
:10038A00B0E00E940C02CF9B02C027FC01C006C04D
:10039A00E89427F8AFEEB0E00E940C02B19902C0CF
:1003AA0030FE01C006C0689430F8A8EFB0E00E94A1
:1003BA000C02B19B02C030FC01C006C0E89430F8C0
:1003CA00A1E0B1E00E940C022FCFFFCFAA935D9B60
:1003DA00FECFE881ECB921960895BA93AA931A93AD
:1003EA00E981FA813196E983FA833197E4911E2FE4
:1003FA00E03019F0A12FEADFF3CFAAE0E7DF188196
:10040A0023960895E1E00E9420020E2A08950E9490
:10041A00F201ADE00C94EB01109639F080ED97E013
:10042A000197F1F7A8951197C9F70895EA17E1E03E
:10043A0009F0EE270895EA17E1E009F4EE27089596
:00000001FF
