:0E0000000C943B000C9400000C9400000C9437
:10000E0000000C9400000C9400000C9400000C9462
:10001E0000000C9400000C9400000C9400000C9452
:10002E0068000C9400000C9400000C9400000C94DA
:10003E0000000C9400000C9400000C9400000C9432
:10004E0000000C9400001027E80364000A00010071
:10005E00001000011000010000004F6B004552001F
:10006E000100040066000000F894EE27ECBBF1E0FE
:10007E00FBBFEBBFE5BF8DE0A2E0BB27ED938A95FA
:10008E00E9F780E094E0A0E6ED930197E9F7EEE65C
:10009E00F0E085919591009761F0A591B59105904D
:1000AE001590BF01F00105900D920197E1F7FB014C
:1000BE00F0CFEFE5EDBFE4E0EEBFC0E6D1E00C948B
:1000CE007B00AA93BA93EA93EFB7EA93A42DB0E01C
:1000DE00A05ABE4FECB1EC935E2E4394E991EFBF64
:1000EE00E991B991A9911895EFEFEABBE0E0EBBB6E
:1000FE00E7BBE8BBEFEFE4BBE0E0E5BBE1BBE0E86C
:10010E00E2BBE0E0EBB9E8E9EAB9E6E8E0BDE0E041
:10011E00E0BDE3E3E9B944247894DD9AD89ADA9AFB
:10012E00A8E5B2E00E94F6030E94F6030E94F603D1
:10013E000E940504DD980E940104A89A0E94010401
:10014E00A8980E940104A99A0E940104A9980E94ED
:10015E000104AA9A0E940104AA980E940104A89A76
:10016E00A99AAA9A0E940104A898A998AA98879970
:10017E0002C0D99A01C0D998EDE5E51509F011C371
:10018E00A8E6B0E00E94E103A0916001A035E1F481
:10019E00A0916101A934C1F4A0916201AE34A1F421
:1001AE00A0916301A13481F4A0916401AE3261F497
:1001BE00A0916501A03341F4A0916601AD3321F405
:1001CE00A0916701A03309F002C0D89AE8C2A091AD
:1001DE006001A035E1F4A0916101A934C1F4A091B0
:1001EE006201AE34A1F4A0916301A13481F4A09117
:1001FE006401AE3261F4A0916501A13341F4A09186
:10020E006601AD3321F4A0916701A03309F001C05E
:10021E00C6C2A0916001A035E1F4A0916101A9349C
:10022E00C1F4A0916201AE34A1F4A0916301A13496
:10023E0081F4A0916401AE3261F4A0916501A23304
:10024E0041F4A0916601AD3321F4A0916701A03372
:10025E0009F002C0DA9AA3C2A0916001A035E1F4C0
:10026E00A0916101A934C1F4A0916201AE34A1F450
:10027E00A0916301A13481F4A0916401AE3261F4C6
:10028E00A0916501A33341F4A0916601AD3321F431
:10029E00A0916701A03309F002C0DB9A80C2A09141
:1002AE006001A035E1F4A0916101A934C1F4A091DF
:1002BE006201AE34A1F4A0916301A13481F4A09146
:1002CE006401AE3261F4A0916501A43341F4A091B2
:1002DE006601AD3321F4A0916701A03309F002C08D
:1002EE00DC9A5DC2A0916001A035E1F4A09161019C
:1002FE00A934C1F4A0916201AE34A1F4A0916301BE
:10030E00A13481F4A0916401AE3261F4A091650133
:10031E00A53341F4A0916601AD3321F4A09167019C
:10032E00A03309F002C0DD9A3AC2A0916001A03557
:10033E00E1F4A0916101A934C1F4A0916201AE343F
:10034E00A1F4A0916301A13481F4A0916401AE32B5
:10035E0061F4A0916501A63341F4A0916601AD331D
:10036E0021F4A0916701A03309F002C0DE9A17C2F2
:10037E00A0916001A035E1F4A0916101A934C1F40E
:10038E00A0916201AE34A1F4A0916301A13481F475
:10039E00A0916401AE3261F4A0916501A73341F4DE
:1003AE00A0916601AD3321F4A0916701A03309F04D
:1003BE0002C0DF9AF4C1A0916001A035E1F4A091D2
:1003CE006101A934C1F4A0916201AE34A1F4A091EF
:1003DE006301A13481F4A0916401AE3261F4A09165
:1003EE006501A03341F4A0916601AD3321F4A091D3
:1003FE006701A13309F002C0D898D1C1A091600164
:10040E00A035E1F4A0916101A934C1F4A09162017B
:10041E00AE34A1F4A0916301A13481F4A0916401E2
:10042E00AE3261F4A0916501A13341F4A091660151
:10043E00AD3321F4A0916701A13309F001C0AFC122
:10044E00A0916001A035E1F4A0916101A934C1F43D
:10045E00A0916201AE34A1F4A0916301A13481F4A4
:10046E00A0916401AE3261F4A0916501A23341F412
:10047E00A0916601AD3321F4A0916701A13309F07B
:10048E0002C0DA988CC1A0916001A035E1F4A09170
:10049E006101A934C1F4A0916201AE34A1F4A0911E
:1004AE006301A13481F4A0916401AE3261F4A09194
:1004BE006501A33341F4A0916601AD3321F4A091FF
:1004CE006701A13309F002C0DB9869C1A0916001F8
:1004DE00A035E1F4A0916101A934C1F4A0916201AB
:1004EE00AE34A1F4A0916301A13481F4A091640112
:1004FE00AE3261F4A0916501A43341F4A09166017E
:10050E00AD3321F4A0916701A13309F002C0DC984C
:10051E0046C1A0916001A035E1F4A0916101A9341A
:10052E00C1F4A0916201AE34A1F4A0916301A13493
:10053E0081F4A0916401AE3261F4A0916501A533FE
:10054E0041F4A0916601AD3321F4A0916701A1336E
:10055E0009F002C0DD9823C1A0916001A035E1F43D
:10056E00A0916101A934C1F4A0916201AE34A1F44D
:10057E00A0916301A13481F4A0916401AE3261F4C3
:10058E00A0916501A63341F4A0916601AD3321F42B
:10059E00A0916701A13309F002C0DE9800C1A091BD
:1005AE006001A035E1F4A0916101A934C1F4A091DC
:1005BE006201AE34A1F4A0916301A13481F4A09143
:1005CE006401AE3261F4A0916501A73341F4A091AC
:1005DE006601AD3321F4A0916701A13309F002C089
:1005EE00DF98DDC0A0916001A035E1F4A09161011A
:1005FE00A934C1F4A0916201AE34A1F4A0916301BB
:10060E00A33481F4A0916401AE3261F4A09165012E
:10061E00A03341F4A0916601AD3321F4A09167019E
:10062E00A03309F002C0A89ABAC0A0916001A0350B
:10063E00E1F4A0916101A934C1F4A0916201AE343C
:10064E00A1F4A0916301A33481F4A0916401AE32B0
:10065E0061F4A0916501A13341F4A0916601AD331F
:10066E0021F4A0916701A03309F002C0A99A97C0A6
:10067E00A0916001A035E1F4A0916101A934C1F40B
:10068E00A0916201AE34A1F4A0916301A33481F470
:10069E00A0916401AE3261F4A0916501A23341F4E0
:1006AE00A0916601AD3321F4A0916701A03309F04A
:1006BE0002C0AA9A74C0A0916001A035E1F4A09185
:1006CE006101A934C1F4A0916201AE34A1F4A091EC
:1006DE006301A33481F4A0916401AE3261F4A09160
:1006EE006501A03341F4A0916601AD3321F4A091D0
:1006FE006701A13309F002C0A89851C0A091600112
:10070E00A035E1F4A0916101A934C1F4A091620178
:10071E00AE34A1F4A0916301A33481F4A0916401DD
:10072E00AE3261F4A0916501A13341F4A09166014E
:10073E00AD3321F4A0916701A13309F002C0A9984D
:10074E002EC0A0916001A035E1F4A0916101A93401
:10075E00C1F4A0916201AE34A1F4A0916301A3345F
:10076E0081F4A0916401AE3261F4A0916501A233CF
:10077E0041F4A0916601AD3321F4A0916701A1333C
:10078E0009F002C0AA980BC0ABE6B0E00E94E103EC
:10079E00ADE009D0AAE007D0A091600104D04424B6
:1007AE005524E5CCFFCFAA935D9BFECFE881ECB933
:1007BE0021960895BA93AA931A93E981FA813196F4
:1007CE00E983FA833197E4911E2FE03019F0A12FBF
:1007DE00EADFF3CFAAE0E7DF1881239608950E949F
:1007EE000504DD98A8ECB0E00E940504DD9AA8ECA3
:1007FE00B0E00895A8ECB0E00C940504109639F022
:10080E0080ED97E00197F1F7A8951197C9F7089534
:00000001FF
